:040000008031C4285F
:10000800803120007F08F2008B1A0B1D0E280B117F
:10001800383095002100931C49282000931C49285A
:10002800931001302100D9070030DA3D00305A0220
:10003800063003195902031C2628D901DA018E312A
:100048009926803120004808031934280130F1002E
:100058007108C9070B304902031C3428F801CD0187
:100068004D08031D462801302100D7070030D83D30
:1000780003305802E93003195702031C4928DB01F1
:10008800DC0149282100D701D8012100911E9C28B4
:100098002000911E9C289112942823001908F10031
:1000A80071082000CB004B088E31B52680319C2882
:1000B80020004C08031D9C28C801C80A2300190801
:1000C800F1007808DD3E8600870171088100780814
:1000D800031D72281908F1007108F3070130F100B7
:1000E8007108F80702307802031C9C28F8012000E8
:1000F800C801C90121005E087306031D8C28200071
:10010800CC01CC0A22000C152000CD01CD0A922882
:100118002000CC0122000C112000CD01F3019C2805
:100128007908003A03195128013A03195C289C28D8
:100138002100111EBC282000111EBC2822005208D4
:10014800203E860001308700010823009A00013014
:10015800F10071082200D207323052020318D2018E
:1001680053085206031D5308031DBC282100111211
:100178008B190B1CC0280B1072082000FF00090007
:100188008031C628F601F701F801483084000030B4
:10019800850007308E31A6268031C03084000030BB
:1001A80085001F308E31A626803120308400013032
:1001B800850034308E31A62680318731FF27803183
:1001C800F9008E319D268031CF008E319E268031F8
:1001D800D0008E319F268031D1008E31A026D200EA
:1001E80020008031F7288F31BF278031FF30210070
:1001F800BA000330BB00FF30BC000330BD00FF3045
:10020800A0000330A100FF30A2000330A300B0011A
:10021800B1010330B8000030B900BE01BF0103309E
:10022800380639040319202900302000A500883039
:10023800A6008F3114278031033021003806390495
:10024800031D862920004C080319862921005D0812
:10025800031D3129BE01BF013C295D082000C500EE
:10026800C60145082100BE00200046082100BF0045
:1002780033082000C600210032082000C500C63619
:10028800C50CC636C50C4508C70047082100D40070
:1002980035082000C600210034082000C500C636F5
:1002A800C50CC636C50C4508C70047082100D5004F
:1002B800550854072000C50045082100D600B6019E
:1002C800B7010030370203300319360203188029BA
:1002D8003608D43E8600870101088E31BF2680315A
:1002E80001302100B6070030B73D00303702033037
:1002F80003193602031C6C290130DB000030DC00D6
:100308002000CC0120004E0803192029CE01CA0183
:10031800CA0A00308F318F27803175082100B30059
:100328007408B20004308F318F278031750821009E
:10033800B5007408B400DC290A30D1293230D1293B
:100348000A30D7293230D7290100032A2100BE01FB
:10035800BF018E31D42680318E31E2268031032AC6
:10036800F4302100BE000130BF000130B800003079
:10037800B9000130DB000030DC00032A0230210024
:10038800B8000030B900DB01DC01032A013021008C
:10039800DB060030DC06032A01302100BE070030EE
:1003A800BF3D032A01302100BE020030BF3B032AB3
:1003B80020004B08443A0319A629113A0319A22927
:1003C800343A0319C229053A0319A429033A03192F
:1003D800032A0E3A0319D029023A0319B429043A18
:1003E8000319CA291F3A0319D629023A0319A82959
:1003F800073A0319A0290F3A0319AA29032A20004A
:10040800CB0103302100B8000030B9001D2A0130AB
:100418008F318F27803175082100BF007408BE0016
:100428000230BF36BE0C890B152A302ABE01BF0127
:10043800302A3908003A0319222A1A2A3808003AB9
:100448000319302A013A0319302A033A03190B2AEF
:10045800013A0319302A1A2A01303F0201300319E0
:100468003E0203183C2A3F08A5003E08A400402A83
:100478000030A4000130A500003025022130031906
:10048800240203184C2A2030BE000030BF00602A26
:1004980001303F02013003193E020318582A3F0871
:1004A800A7003E08A6005C2A0030A6000130A7007D
:1004B8002708BF002608BE005B035C04031D832ACF
:1004C80022008C1521003E092000C50021003F09AB
:1004D8002000C600C50A0319C60A4508FF3E2100C8
:1004E800BA0001302000463D2100BB003F08BD0096
:1004F8003E08BC008C130C138D118D128A2A220021
:100508008C1121008C170C178D158D163B08803A1D
:100518002000C50084304502031D952A00302100C3
:100528003A0203189D2A21003B08A9003A08A800AE
:10053800A22AFF302100A8000330A9002908803A28
:100548002000C50080304502031DAD2A023021007D
:1005580028020318B52A01302100BA000030BB0078
:10056800D22A21003B08803A2000C5008430450289
:10057800031DC12A003021003A020318C92A2100AC
:100588003B08AB003A08AA00CE2AFF302100AA0097
:100598000330AB002B08BB002A08BA003B08200038
:1005A800A80021003A082000A70001308331D82391
:1005B8008031200028082100A10020002708210000
:1005C800A0003D08803A2000C50084304502031D84
:1005D800F02A003021003C020318F82A21003D08C7
:1005E800AD003C08AC00FD2AFF302100AC00033010
:1005F800AD002D08803A2000C50080304502031D5B
:10060800082B023021002C020318102B0130210086
:10061800BC000030BD002D2B21003D08803A200091
:10062800C50084304502031D1C2B003021003C020C
:100638000318242B21003D08AF003C08AE00292BED
:10064800FF302100AE000330AF002F08BD002E0898
:10065800BC003D082000A80021003C082000A7009D
:1006680002308331D8238031200028082100A300DC
:10067800200027082100A200033038063904031996
:10068800D52B0130B0070030B13DC62B3B08200008
:10069800A90021003A082000A80086313A268031B6
:1006A800D52B39302000A5008830A6008F311427BB
:1006B8008031D52B210021082000A9002100200825
:1006C8002000A80086313A268031D52B373020000B
:1006D800A5008830A6008F311427803121003D08FD
:1006E8002000A90021003C082000A80086313A26F5
:1006F8008031D52B37302000A5008830A6008F31F7
:1007080014278031210023082000A9002100220895
:100718002000A80086313A268031D52B37302000BA
:10072800A5008830A6008F311427803121003308B6
:100738002000A900210032082000A80086313A26AE
:100748008031D52B37302000A5008830A6008F31A6
:1007580014278031210035082000A9002100340821
:100768002000A80086313A268031D52B343020006D
:10077800A5008830A6008F31142780312100B001F0
:10078800B101D52B3108003A0319CB2BC32B300804
:100798008400093004020318C32B883104353B3E1A
:1007A80082002000CA0120292000C4002808803ABD
:1007B800A90084302902031DE32B00302702031807
:1007C800EB2B20002808AF002708AE00F02BFF30E5
:1007D8002000AE000330AF002F08803AA900803017
:1007E8002902031DF92B01302E020318FF2B2000CC
:1007F800A701A8011A2C20002808803AA9008430F3
:100808002902031D092C003027020318112C20008F
:100818002808B1002708B000162CFF302000B000CF
:100828000330B1003108A8003008A7004435FE3E67
:100838004F3E86008701403FA900413FAA00A90911
:10084800AA09A90A0319AA0A27082907AB00280830
:100858002A3DAC002C08803AAD0080302D02031DE3
:10086800372C06302B0203184E2C20004435FE3E50
:100878004F3E86008701403FA900413FAA00A909D1
:10088800AA09A90A0319AA0A27082907B4002808E7
:100898002A3D522C05302000B4000030B500350840
:1008A800803AA9007F302902031D5C2CFC303402F9
:1008B8000318642CFB302000B200FF30B300A22CD8
:1008C80020004435FE3E4F3E86008701403FA90088
:1008D800413FAA00A909AA09A90A0319AA0A2708CF
:1008E8002907AB0028082A3DAC002C08803AAD0047
:1008F80080302D02031D822C06302B020318992C00
:1009080020004435FE3E4F3E86008701403FA90047
:10091800413FAA00A909AA09A90A0319AA0A27088E
:100928002907B60028082A3D9D2C05302000B6006E
:100938000030B7003708B3003608B2004435FE3E31
:100948004F3E860087013208810741313308813DD7
:100958007F314403031D162D4435FE3E4F3E86006D
:100968008701403FA900413FAA002A08803AAB000E
:1009780081302B02031DC22CE03029020318CE2C33
:1009880020004435FE3E4F3E86008701403FBA00B6
:10099800413FD22CDF302000BA000130BB003B08B9
:1009A800803AA90081302902031DDC2C00303A026C
:1009B8000318E42CFF302000B8000030B9000C2DDB
:1009C80020004435FE3E4F3E86008701403FA90087
:1009D800413FAA002A08803AAB0081302B02031D50
:1009E800F72CE03029020318032D20004435FE3E81
:1009F8004F3E86008701403FBC00413F072DDF3056
:100A08002000BC000130BD003D08B9003C08B8001A
:100A18004435FE3E4F3E860087013808C03F3908FE
:100A2800C13F7F2D02304406031D7F2D4435FE3E15
:100A38004F3E86008701403FA900413FAA002A088F
:100A4800803AAB0081302B02031D2C2D0130290286
:100A58000318382D20004435FE3E4F3E860087019E
:100A6800403FC000413F3C2D00302000C000013015
:100A7800C1004108803AA90080302902031D462D93
:100A88002130400203184E2D20302000BE000030D7
:100A9800BF00762D20004435FE3E4F3E860087017C
:100AA800403FA900413FAA002A08803AAB008130A4
:100AB8002B02031D612D0130290203186D2D200022
:100AC8004435FE3E4F3E86008701403FC200413F0D
:100AD800712D00302000C2000130C3004308BF0060
:100AE8004208BE004435FE3E4F3E860087013E0860
:100AF800C03F3F08C13F4435FE3E4F3E8600870158
:100B0800403FF400413FF500440885319625200018
:100B18004435FE3E4F3E86008701403FA700413FD7
:100B2800A80008002000A6007508803AA0008430BC
:100B38002002031DA12D003074020318A92D750889
:100B48002000A3007408A200AE2DFF302000A200F0
:100B58000330A3002308803AA00080302002031D40
:100B6800B72D013022020318BC2DF401F501D72D51
:100B78007508803A2000A00084302002031DC62D8D
:100B8800003074020318CE2D75082000A5007408E3
:100B9800A400D32DFF302000A4000330A5002508B1
:100BA800F5002408F4007508803A2000A000803081
:100BB8002002031DE12D0E3074020318E52DF40107
:100BC800F50120002603031D0F2E7508A1007408E7
:100BD800A000210DA10CA00C210DA10CA00C200837
:100BE80025009100740803392000A000A00E2500FC
:100BF800130820002006CF3920062500930074082A
:100C08007504031D0A2E80309405080014088039E5
:100C1800023894000800023020002606031D080050
:100C28007508A1007408A000210DA10CA00C210DCD
:100C3800A10CA00C20082500980074080339200096
:100C4800A000A00E25001A0820002006CF39200693
:100C580025009A0074087504031D352E80309B0505
:100C680008001B08803902389B0008002000B501E5
:100C7800B601CA308600003087002B30840000306F
:100C880085000A30AA0016001A00AA0B472EA91FD1
:100C9800622E2D308731D7278631FF302000A00003
:100CA800FF30A1002908A3002808A2008F312E27B1
:100CB800863120002108A9002008A8002808290456
:100CC800031D6A2E30308731D72786312000280847
:100CD80029040319992E0A302000A0000030A10031
:100CE8002908A3002808A20087310627863120009A
:100CF8002008AA0035082B3E860087012A088100B3
:100D08000A30A0000030A1002908A3002808A2008A
:100D18008631B426863120002108A9002008A800C1
:100D28000130B5070030B63D6A2E3508FF3EB700E2
:100D3800FF30363DB800B81BB12E37082B3E860071
:100D480087010108303E8731D7278631FF302000E0
:100D5800B707FF30B83DB81FA12E210011160800B3
:100D68002000A501A11FBF2EA009A109A00A0319EF
:100D7800A10AA501A50AA31FCA2EA209A309A20AAE
:100D88000319A30A0130F4007408A506A601A701F7
:100D9800200821040319F92EA401A40AA11BDE2EA0
:100DA8000130A035A10D890BD52E0130F40074084F
:100DB800A407D22E0130A635A70D890BDF2E2108F6
:100DC8002302031DE92E20082202031CF02E20080E
:100DD800A2022108A33B26140130A136A00C890BDE
:100DE800F12E0130A402031DDE2E25080319012F60
:100DF800A609A709A60A0319A70A2708A100260811
:100E0800A00008002000A501A31F112FA209A30913
:100E1800A20A0319A30AA501A50AA11F182FA00950
:100E2800A109A00A0319A10A2008210403193F2FC8
:100E3800A401A40AA11B2A2F0130A035A10D890BFA
:100E4800212F0130F4007408A4071E2F2108230263
:100E5800031D302F20082202031C362F2008A2026F
:100E68002108A33B0130A136A00C890B372F013094
:100E7800A402031D2A2F25080319472FA209A30935
:100E8800A20A0319A30A2308A1002208A000080047
:100E98002000A80022009D151D1621008C170C1794
:100EA80020002808860087010108280096002000F5
:100EB800280A8600870125001A080106F03901066C
:100EC8009A0020002808023E860087010108A70032
:100ED800A70EA70DA70D25001A08200027063F39E1
:100EE800270625009A008F309C051B088039023898
:100EF8009B002030F4000030F50002308531962543
:100F0800873125001E08F33904389E00FC3028007C
:100F1800970517152000931808008E2F2000A800A9
:100F280022001D1021008D158D162000280886002E
:100F380087010108280096002000280A86008701FA
:100F4800250013080106F03901069300200028083F
:100F5800023E860087010108A700A70EA70DA70D6E
:100F680025001308200027063F392706250093008F
:100F78008F3095051408803902389400DF30F4006A
:100F88000130F500013085319625873125001E088E
:100F9800FC3901389E00FC30280097051715200001
:100FA80093180800D32F2000A4002100111220005C
:100FB8002408A30022005308203E86000130870041
:100FC8002000230881000130A30023082200D30752
:100FD800323053020318D30153085206031D080088
:100FE80024302000A0008830A1008F31682701300C
:100FF8002200D302080001340D340A346D346F34F2
:1010080074346F3472345F346434723469347634CF
:10101800653472345F3474346534733474345F34D3
:10102800703472346F346734723461346D34203400
:101038005634653472342E3430340D340A34003466
:101048000D340A34543458342034733470346534CD
:101058006534643420346F34763465347234213422
:101068000D340A340034203400347C3400348331A5
:10107800D52B83314A2B8331552B83315E2B83311A
:101088006A2B83317E2B8331922B8331A62B8331BC
:02109800BA2B71
:101D32002000CE01CE0A0800DF3401342034003402
:101D420027009401023095000800640080010131EF
:101D5200890BA72E003421009512951107309504A6
:101D62008B160B178B170800F000210011122000B0
:101D7200111EB82E700823009A000800F4002100FA
:101D820011122000111EC22E740823009A000800AE
:101D920021001E088F3950389E001E11FC309E050E
:101DA2009E171D1408000030F400F5000130853143
:101DB20096258E310030F400F500023085319625EB
:101DC200080022008C11FF3021008C00FF308D00B2
:101DD2008E31A1268B1563008B1101000800F500DE
:101DE2007508F400F40DF40DF40D280017087406BC
:101DF200873974069700210093140800F500FF301C
:101E0200F400750886008701740881000C30F40024
:101E1200750A86008701740881007508023E8600F3
:101E2200870181010800200025088400260885001A
:101E3200120003192B2F2000250884002608850094
:101E420000088731D7278F3101302000A5070030E5
:101E5200A63D142F210011160800F401F5012000FF
:101E6200201C372F2208F4072308F53D0130A23544
:101E7200A30D890B382F0130A136A00C890B3D2F01
:101E820020082104031D302F7508A1007408A0004A
:101E9200080023001E159C0167309B009F111E1233
:101EA2009D171E139E169E1122001E1021000D1555
:101EB20022009D1321008D1423008D101D16210078
:101EC20091160B178B172200D201D30108000030A4
:101ED2002100111A01302000A2002100111220005D
:101EE200200884002108850012000319872F200092
:101EF200200884002108850000088E31BF268F311A
:101F020001302000A0070030A13D702F221C8C2F31
:101F12002100111608002100111208002000A30060
:101F22002308A000A00DA00D21001D0820002006FE
:101F32008339200621009D0035302000A000A00B2F
:101F4200A02F21009D149D18A42F1B082000A00083
:101F5200A1012008A4002108A50021001C082000DE
:101F6200A000A1012008A100A0012008A4072108C7
:101F7200A53D2508F5002408F400080021001908F1
:101F8200873970389900F3308C00FF308D001330A0
:101F920023008C00FB3022008C00FF308D002A30A1
:101FA2008E31FF268F317F302000A9002908AA0038
:101FB2000F30A9002908AB000230A9002908AC00A3
:101FC2002A3087314C278F312A30873192278F313F
:101FD20009308E31F0268F3121008C1423008C14AD
:101FE2008E31C9268F31C030210098058E31AC2642
:0E1FF2008F318F314A2722000C158C11080008
:020000040001F9
:04000E0084F9FFDF93
:00000001FF
